:02000000922844
:1000060083120313FB01FA01F9018030F800F10CA9
:10001600F00C031C17287408F90775080318750FE8
:10002600FA070318FB0A0310F01F1F287408FA07C3
:1000360075080318750FFB07FB0CFA0CF90CF80C86
:10004600031C0A287B08F3007A08F2007908F100FD
:060056007808F00008002C
:0C005C008312031395011712971208007D
:0E0068008312031323088A0022088200080076
:1000760034208A110A128000840AA20A0319A30AEC
:08008600F003031D3B280800F4
:10008E00831603131208013EF000F1010318F10A62
:10009E0083122408F400F50103200630F2007008E4
:1000AE00F4007108F500720803196228F50CF40CBF
:1000BE00F513FF3E5B280430F1007408F000710860
:1000CE0003196D28F00D7010FF3E67283030700553
:1000DE00F3007408F0007508F100F10CF00CF11348
:1000EE00F10CF00CF113700895000F3097057308A2
:0400FE00970408005B
:10010200831603130711831212150C30970408008B
:100112008312031312149210C730831692002E20FA
:020122000800D3
:1001240083120313A001A10189207D30A40047207C
:100134008120A001A10180302106F00080307002EE
:10014400031DA628143020020318E82935291214A7
:1001540092145630831692002E20D529121492142C
:100164005930831692002E20D529121492145C3033
:10017400831692002E20D52912149214603083160F
:1001840092002E20D5291214921463308316920003
:100194002E20D529121492146830831692002E2032
:1001A400D529121492146C30831692002E20D5296E
:1001B400121492147130831692002E20D529121431
:1001C40092147630831692002E20D529121492149C
:1001D4007C30831692002E20D52912149214833079
:1001E400831692002E20D529121492148A30831675
:1001F40092002E20D5291214921492308316920064
:100204002E20D529121492149C30831692002E208D
:10021400D52912149214A630831692002E20D529C3
:1002240012149214B230831692002E20D52912147F
:100234009214C030831692002E20D52912149214E1
:10024400D030831692002E20D52912149214E33054
:10025400831692002E20D52912149214F930831695
:1002640092002E20D52900302106031D3B2914308D
:1002740020060319A92800302106031D4329133041
:1002840020060319B02800302106031D4B29123023
:1002940020060319B72800302106031D5329113005
:1002A40020060319BE2800302106031D5B291030E7
:1002B40020060319C52800302106031D63290F30C9
:1002C40020060319CC2800302106031D6B290E30AB
:1002D40020060319D32800302106031D73290D308D
:1002E40020060319DA2800302106031D7B290C306F
:1002F40020060319E12800302106031D83290B3051
:1003040020060319E82800302106031D8B290A3032
:1003140020060319EF2800302106031D9329093014
:1003240020060319F62800302106031D9B290830F6
:1003340020060319FD2800302106031DA3290730D8
:1003440020060319042900302106031DAB290630B9
:10035400200603190B2900302106031DB32905309B
:1003640020060319122900302106031DBB2904307D
:1003740020060319192900302106031DC32903305F
:1003840020060319202900302106031DCB29023041
:1003940020060319272900302106031DD329013023
:1003A400200603192E294630A40047200330FB0001
:1003B4000830FC007730FD00FD0BDE29FC0BDE2944
:1003C400FB0BDE29A00A0319A10A9D289B28E92911
:02400E004A2F37
:00000001FF
